{
    "contractName": "rinkSour",
    "abi": [
        {
            "inputs": [],
            "stateMutability": "nonpayable",
            "type": "constructor"
        },
        {
            "anonymous": false,
            "inputs": [
                {
                    "indexed": true,
                    "internalType": "address",
                    "name": "requester",
                    "type": "address"
                },
                {
                    "indexed": true,
                    "internalType": "bytes32",
                    "name": "rinkebyDepositHash",
                    "type": "bytes32"
                },
                {
                    "indexed": false,
                    "internalType": "uint256",
                    "name": "amount",
                    "type": "uint256"
                },
                {
                    "indexed": false,
                    "internalType": "uint256",
                    "name": "timestamp",
                    "type": "uint256"
                }
            ],
            "name": "tokensLocked",
            "type": "event"
        },
        {
            "anonymous": false,
            "inputs": [
                {
                    "indexed": true,
                    "internalType": "address",
                    "name": "requester",
                    "type": "address"
                },
                {
                    "indexed": true,
                    "internalType": "bytes32",
                    "name": "ropstenDepositHash",
                    "type": "bytes32"
                },
                {
                    "indexed": false,
                    "internalType": "uint256",
                    "name": "amount",
                    "type": "uint256"
                },
                {
                    "indexed": false,
                    "internalType": "uint256",
                    "name": "timestamp",
                    "type": "uint256"
                }
            ],
            "name": "tokensUnlocked",
            "type": "event"
        },
        {
            "inputs": [
                {
                    "internalType": "address",
                    "name": "_requester",
                    "type": "address"
                },
                {
                    "internalType": "uint256",
                    "name": "_bridgedAmount",
                    "type": "uint256"
                }
            ],
            "name": "approve",
            "outputs": [],
            "stateMutability": "nonpayable",
            "type": "function"
        },
        {
            "inputs": [
                {
                    "internalType": "contract IERC20",
                    "name": "ERC20TokenAddress",
                    "type": "address"
                },
                {
                    "internalType": "address",
                    "name": "_owner",
                    "type": "address"
                }
            ],
            "name": "initialiseERC20TokenAddress",
            "outputs": [],
            "stateMutability": "nonpayable",
            "type": "function"
        },
        {
            "inputs": [
                {
                    "internalType": "address",
                    "name": "_requester",
                    "type": "address"
                },
                {
                    "internalType": "uint256",
                    "name": "_bridgedAmount",
                    "type": "uint256"
                },
                {
                    "internalType": "bytes32",
                    "name": "rinkebyDepositHash",
                    "type": "bytes32"
                }
            ],
            "name": "lockTokens",
            "outputs": [],
            "stateMutability": "payable",
            "type": "function"
        },
        {
            "inputs": [
                {
                    "internalType": "address",
                    "name": "",
                    "type": "address"
                }
            ],
            "name": "lockedTokens",
            "outputs": [
                {
                    "internalType": "uint256",
                    "name": "",
                    "type": "uint256"
                }
            ],
            "stateMutability": "view",
            "type": "function"
        },
        {
            "inputs": [
                {
                    "internalType": "address",
                    "name": "_requester",
                    "type": "address"
                },
                {
                    "internalType": "uint256",
                    "name": "_unlockAmount",
                    "type": "uint256"
                },
                {
                    "internalType": "bytes32",
                    "name": "ropstenDepositHash",
                    "type": "bytes32"
                }
            ],
            "name": "unlockTokens",
            "outputs": [],
            "stateMutability": "nonpayable",
            "type": "function"
        },
        {
            "inputs": [],
            "name": "viewERC20Owner",
            "outputs": [
                {
                    "internalType": "address",
                    "name": "",
                    "type": "address"
                }
            ],
            "stateMutability": "view",
            "type": "function"
        },
        {
            "inputs": [],
            "name": "viewERC20Token",
            "outputs": [
                {
                    "internalType": "contract IERC20",
                    "name": "",
                    "type": "address"
                }
            ],
            "stateMutability": "view",
            "type": "function"
        }
    ],
    "bytecode": "608060405234801561001057600080fd5b50600080546001600160a01b031916331790556106b7806100326000396000f3fe6080604052600436106100705760003560e01c8063ad0c74981161004e578063ad0c7498146100ea578063e289b1f714610133578063e6e6854e14610153578063f710a3681461018557600080fd5b8063095ea7b31461007557806341d5e8b2146100975780635eb7413a146100aa575b600080fd5b34801561008157600080fd5b5061009561009036600461051b565b6101a3565b005b6100956100a5366004610547565b61025f565b3480156100b657600080fd5b506100d76100c536600461057c565b60036020526000908152604090205481565b6040519081526020015b60405180910390f35b3480156100f657600080fd5b506100956101053660046105a0565b600280546001600160a01b039384166001600160a01b03199182161790915560018054929093169116179055565b34801561013f57600080fd5b5061009561014e366004610547565b61030b565b34801561015f57600080fd5b506002546001600160a01b03165b6040516001600160a01b0390911681526020016100e1565b34801561019157600080fd5b506001546001600160a01b031661016d565b670de0b6b3a76400008110156101d45760405162461bcd60e51b81526004016101cb906105d9565b60405180910390fd5b60025460405163095ea7b360e01b81526001600160a01b038481166004830152602482018490529091169063095ea7b390604401602060405180830381600087803b15801561022257600080fd5b505af1158015610236573d6000803e3d6000fd5b505050506040513d601f19601f8201168201806040525081019061025a919061061a565b505050565b670de0b6b3a76400008210156102875760405162461bcd60e51b81526004016101cb906105d9565b6001600160a01b0383166000908152600360205260409020546102ab908390610652565b6001600160a01b038416600081815260036020908152604091829020939093558051858152429381019390935283927f14f41c1c12ede47ef5ed924e5a22fd4801d1effe644984e0da1887294c8aac9591015b60405180910390a3505050565b336001600160a01b038416146103735760405162461bcd60e51b815260206004820152602760248201527f4f6e6c7920686f6c646572206f6620746f6b656e732063616e20756e6c6f636b60448201526620746f6b656e7360c81b60648201526084016101cb565b6001600160a01b0383166000908152600360205260409020548211156104015760405162461bcd60e51b815260206004820152603860248201527f556e6c6f636b20616d6f756e742072657175657374656420677265617465722060448201527f7468616e20746f74616c206c6f636b656420616d6f756e74000000000000000060648201526084016101cb565b6001600160a01b03831660009081526003602052604090205461042590839061066a565b6001600160a01b038481166000818152600360205260409081902093909355600254925163a9059cbb60e01b815260048101919091526024810185905291169063a9059cbb90604401602060405180830381600087803b15801561048857600080fd5b505af115801561049c573d6000803e3d6000fd5b505050506040513d601f19601f820116820180604052508101906104c0919061061a565b506040805183815242602082015282916001600160a01b038616917f997f5ad3086a1b8a658850f987b0102f941f46f61d8d8157530c9101a6a8d98591016102fe565b6001600160a01b038116811461051857600080fd5b50565b6000806040838503121561052e57600080fd5b823561053981610503565b946020939093013593505050565b60008060006060848603121561055c57600080fd5b833561056781610503565b95602085013595506040909401359392505050565b60006020828403121561058e57600080fd5b813561059981610503565b9392505050565b600080604083850312156105b357600080fd5b82356105be81610503565b915060208301356105ce81610503565b809150509250929050565b60208082526021908201527f41746c6561737420312e3020746f6b656e732073686f756c642062652073656e6040820152601d60fa1b606082015260800190565b60006020828403121561062c57600080fd5b8151801515811461059957600080fd5b634e487b7160e01b600052601160045260246000fd5b600082198211156106655761066561063c565b500190565b60008282101561067c5761067c61063c565b50039056fea264697066735822122018d0ddc177c70fc51bc2432e4f415954088556c8de54012c4ef3bbebc8b1c55964736f6c63430008090033",
    "sourcePath": "/Users/deepaksrivastava/Downloads/CrossChain/contracts/rinkSour.sol",
    "compiler": {
        "name": "solc",
        "version": "0.8.9+commit.e5eed63a"
    },
    "functionHashes": {
        "approve(address,uint256)": "095ea7b3",
        "initialiseERC20TokenAddress(address,address)": "ad0c7498",
        "lockTokens(address,uint256,bytes32)": "41d5e8b2",
        "lockedTokens(address)": "5eb7413a",
        "unlockTokens(address,uint256,bytes32)": "e289b1f7",
        "viewERC20Owner()": "f710a368",
        "viewERC20Token()": "e6e6854e"
    },
    "gasEstimates": {
        "creation": {
            "codeDepositCost": "343800",
            "executionCost": "24615",
            "totalCost": "368415"
        },
        "external": {
            "approve(address,uint256)": "infinite",
            "initialiseERC20TokenAddress(address,address)": "infinite",
            "lockTokens(address,uint256,bytes32)": "26935",
            "lockedTokens(address)": "2547",
            "unlockTokens(address,uint256,bytes32)": "infinite",
            "viewERC20Owner()": "2397",
            "viewERC20Token()": "2364"
        }
    }
}