{
    "contractName": "ropsTar",
    "abi": [
        {
            "inputs": [],
            "stateMutability": "nonpayable",
            "type": "constructor"
        },
        {
            "anonymous": false,
            "inputs": [
                {
                    "indexed": true,
                    "internalType": "uint256",
                    "name": "timestamp",
                    "type": "uint256"
                }
            ],
            "name": "BridgeInitialized",
            "type": "event"
        },
        {
            "anonymous": false,
            "inputs": [
                {
                    "indexed": true,
                    "internalType": "address",
                    "name": "requester",
                    "type": "address"
                },
                {
                    "indexed": true,
                    "internalType": "bytes32",
                    "name": "mainDepositHash",
                    "type": "bytes32"
                },
                {
                    "indexed": false,
                    "internalType": "uint256",
                    "name": "amount",
                    "type": "uint256"
                },
                {
                    "indexed": false,
                    "internalType": "uint256",
                    "name": "timestamp",
                    "type": "uint256"
                }
            ],
            "name": "TokensBridged",
            "type": "event"
        },
        {
            "anonymous": false,
            "inputs": [
                {
                    "indexed": true,
                    "internalType": "address",
                    "name": "requester",
                    "type": "address"
                },
                {
                    "indexed": true,
                    "internalType": "bytes32",
                    "name": "sideDepositHash",
                    "type": "bytes32"
                },
                {
                    "indexed": false,
                    "internalType": "uint256",
                    "name": "amount",
                    "type": "uint256"
                },
                {
                    "indexed": false,
                    "internalType": "uint256",
                    "name": "timestamp",
                    "type": "uint256"
                }
            ],
            "name": "TokensReturned",
            "type": "event"
        },
        {
            "inputs": [
                {
                    "internalType": "address",
                    "name": "_requester",
                    "type": "address"
                },
                {
                    "internalType": "uint256",
                    "name": "_bridgedAmount",
                    "type": "uint256"
                },
                {
                    "internalType": "bytes32",
                    "name": "_rinkebyDepositHash",
                    "type": "bytes32"
                }
            ],
            "name": "bridgeTokens",
            "outputs": [],
            "stateMutability": "nonpayable",
            "type": "function"
        },
        {
            "inputs": [
                {
                    "internalType": "address",
                    "name": "_ropsTokenAddress",
                    "type": "address"
                }
            ],
            "name": "initializeBridge",
            "outputs": [],
            "stateMutability": "nonpayable",
            "type": "function"
        },
        {
            "inputs": [
                {
                    "internalType": "address",
                    "name": "_requester",
                    "type": "address"
                },
                {
                    "internalType": "uint256",
                    "name": "_bridgedAmount",
                    "type": "uint256"
                },
                {
                    "internalType": "bytes32",
                    "name": "_ropstenDepositHash",
                    "type": "bytes32"
                }
            ],
            "name": "returnTokens",
            "outputs": [],
            "stateMutability": "nonpayable",
            "type": "function"
        }
    ],
    "bytecode": "608060405234801561001057600080fd5b50600180546001600160a01b031916331790556104da806100326000396000f3fe608060405234801561001057600080fd5b50600436106100415760003560e01c80632065f2c0146100465780635fa420a91461005b5780637a0627911461006e575b600080fd5b61005961005436600461044f565b610081565b005b610059610069366004610471565b610113565b61005961007c366004610471565b610275565b6001546001600160a01b031633146100ec5760405162461bcd60e51b8152602060048201526024808201527f4f6e6c79206f776e65722063616e206578656375746520746869732066756e636044820152633a34b7b760e11b60648201526084015b60405180910390fd5b600080546001600160a81b0319166001600160a01b0390921691909117600160a01b179055565b600054600160a01b900460ff1661016c5760405162461bcd60e51b815260206004820152601f60248201527f42726964676520686173206e6f74206265656e20696e697469616c697a65640060448201526064016100e3565b6001600160a01b03831633146101c45760405162461bcd60e51b815260206004820152601e60248201527f4f6e6c79206f776e65722063616e20726574726965766520746f6b656e73000060448201526064016100e3565b60005460405163079cc67960e41b81526001600160a01b03858116600483015260248201859052909116906379cc679090604401600060405180830381600087803b15801561021257600080fd5b505af1158015610226573d6000803e3d6000fd5b5050604080518581524260208201528493506001600160a01b03871692507fba3809a24948d41e15773b22a28a1c0933973b2987dd15c6d028ca91397a4bd691015b60405180910390a3505050565b600054600160a01b900460ff166102ce5760405162461bcd60e51b815260206004820152601f60248201527f42726964676520686173206e6f74206265656e20696e697469616c697a65640060448201526064016100e3565b6001600160a01b03831633146103265760405162461bcd60e51b815260206004820152601c60248201527f4f6e6c79206f776e65722063616e2062726964676520746f6b656e730000000060448201526064016100e3565b6000546040516340c10f1960e01b81526001600160a01b039091166004820181905260248201849052906340c10f1990604401600060405180830381600087803b15801561037357600080fd5b505af1158015610387573d6000803e3d6000fd5b50506000546040516340c10f1960e01b81526001600160a01b0387811660048301526024820187905290911692506340c10f199150604401600060405180830381600087803b1580156103d957600080fd5b505af11580156103ed573d6000803e3d6000fd5b5050604080518581524260208201528493506001600160a01b03871692507f8dc81f2443de6a44d7971a95a7a73309a62194b83fabf4e9c9e81310c4e83c9f9101610268565b80356001600160a01b038116811461044a57600080fd5b919050565b60006020828403121561046157600080fd5b61046a82610433565b9392505050565b60008060006060848603121561048657600080fd5b61048f84610433565b9560208501359550604090940135939250505056fea2646970667358221220b3d0892d511aadb7873cb31f766d51bc75493330522a8fde334c21f0df2dd72264736f6c63430008090033",
    "sourcePath": "/Users/deepaksrivastava/Downloads/CrossChain/contracts/ropsTar.sol",
    "compiler": {
        "name": "solc",
        "version": "0.8.9+commit.e5eed63a"
    },
    "functionHashes": {
        "bridgeTokens(address,uint256,bytes32)": "7a062791",
        "initializeBridge(address)": "2065f2c0",
        "returnTokens(address,uint256,bytes32)": "5fa420a9"
    },
    "gasEstimates": {
        "creation": {
            "codeDepositCost": "248400",
            "executionCost": "24522",
            "totalCost": "272922"
        },
        "external": {
            "bridgeTokens(address,uint256,bytes32)": "infinite",
            "initializeBridge(address)": "26698",
            "returnTokens(address,uint256,bytes32)": "infinite"
        }
    }
}